{
  "_format": "hh-sol-artifact-1",
  "contractName": "Shop",
  "sourceName": "contracts/Shop.sol",
  "abi": [
    {
      "inputs": [
        {
          "internalType": "uint256",
          "name": "_purchaseRatio",
          "type": "uint256"
        },
        {
          "internalType": "uint256",
          "name": "_mintPrice",
          "type": "uint256"
        },
        {
          "internalType": "address",
          "name": "_paymentToken",
          "type": "address"
        },
        {
          "internalType": "address",
          "name": "_collection",
          "type": "address"
        }
      ],
      "stateMutability": "nonpayable",
      "type": "constructor"
    },
    {
      "anonymous": false,
      "inputs": [
        {
          "indexed": true,
          "internalType": "address",
          "name": "previousOwner",
          "type": "address"
        },
        {
          "indexed": true,
          "internalType": "address",
          "name": "newOwner",
          "type": "address"
        }
      ],
      "name": "OwnershipTransferred",
      "type": "event"
    },
    {
      "inputs": [],
      "name": "collection",
      "outputs": [
        {
          "internalType": "contract IERC721MintableBurnable",
          "name": "",
          "type": "address"
        }
      ],
      "stateMutability": "view",
      "type": "function"
    },
    {
      "inputs": [],
      "name": "mintPrice",
      "outputs": [
        {
          "internalType": "uint256",
          "name": "",
          "type": "uint256"
        }
      ],
      "stateMutability": "view",
      "type": "function"
    },
    {
      "inputs": [],
      "name": "owner",
      "outputs": [
        {
          "internalType": "address",
          "name": "",
          "type": "address"
        }
      ],
      "stateMutability": "view",
      "type": "function"
    },
    {
      "inputs": [],
      "name": "ownerPool",
      "outputs": [
        {
          "internalType": "uint256",
          "name": "",
          "type": "uint256"
        }
      ],
      "stateMutability": "view",
      "type": "function"
    },
    {
      "inputs": [
        {
          "internalType": "uint256",
          "name": "amount",
          "type": "uint256"
        }
      ],
      "name": "ownerWithdraw",
      "outputs": [],
      "stateMutability": "nonpayable",
      "type": "function"
    },
    {
      "inputs": [],
      "name": "paymentToken",
      "outputs": [
        {
          "internalType": "contract IERC20MintableBurnable",
          "name": "",
          "type": "address"
        }
      ],
      "stateMutability": "view",
      "type": "function"
    },
    {
      "inputs": [],
      "name": "publicPool",
      "outputs": [
        {
          "internalType": "uint256",
          "name": "",
          "type": "uint256"
        }
      ],
      "stateMutability": "view",
      "type": "function"
    },
    {
      "inputs": [
        {
          "internalType": "uint256",
          "name": "tokenId",
          "type": "uint256"
        }
      ],
      "name": "purchaseNft",
      "outputs": [],
      "stateMutability": "nonpayable",
      "type": "function"
    },
    {
      "inputs": [],
      "name": "purchaseRatio",
      "outputs": [
        {
          "internalType": "uint256",
          "name": "",
          "type": "uint256"
        }
      ],
      "stateMutability": "view",
      "type": "function"
    },
    {
      "inputs": [],
      "name": "purchaseTokens",
      "outputs": [],
      "stateMutability": "payable",
      "type": "function"
    },
    {
      "inputs": [],
      "name": "renounceOwnership",
      "outputs": [],
      "stateMutability": "nonpayable",
      "type": "function"
    },
    {
      "inputs": [
        {
          "internalType": "uint256",
          "name": "tokenId",
          "type": "uint256"
        }
      ],
      "name": "returnNft",
      "outputs": [],
      "stateMutability": "nonpayable",
      "type": "function"
    },
    {
      "inputs": [
        {
          "internalType": "uint256",
          "name": "amount",
          "type": "uint256"
        }
      ],
      "name": "returnTokens",
      "outputs": [],
      "stateMutability": "nonpayable",
      "type": "function"
    },
    {
      "inputs": [
        {
          "internalType": "address",
          "name": "newOwner",
          "type": "address"
        }
      ],
      "name": "transferOwnership",
      "outputs": [],
      "stateMutability": "nonpayable",
      "type": "function"
    }
  ],
  "bytecode": "0x60806040523480156200001157600080fd5b50604051620013dd380380620013dd8339818101604052810190620000379190620001eb565b620000576200004b620000f160201b60201c565b620000f960201b60201c565b836001819055508260028190555081600560006101000a81548173ffffffffffffffffffffffffffffffffffffffff021916908373ffffffffffffffffffffffffffffffffffffffff16021790555080600660006101000a81548173ffffffffffffffffffffffffffffffffffffffff021916908373ffffffffffffffffffffffffffffffffffffffff16021790555050505050620002c9565b600033905090565b60008060009054906101000a900473ffffffffffffffffffffffffffffffffffffffff169050816000806101000a81548173ffffffffffffffffffffffffffffffffffffffff021916908373ffffffffffffffffffffffffffffffffffffffff1602179055508173ffffffffffffffffffffffffffffffffffffffff168173ffffffffffffffffffffffffffffffffffffffff167f8be0079c531659141344cd1fd0a4f28419497f9722a3daafe3b4186f6b6457e060405160405180910390a35050565b600081519050620001ce8162000295565b92915050565b600081519050620001e581620002af565b92915050565b600080600080608085870312156200020257600080fd5b60006200021287828801620001d4565b94505060206200022587828801620001d4565b93505060406200023887828801620001bd565b92505060606200024b87828801620001bd565b91505092959194509250565b600062000264826200026b565b9050919050565b600073ffffffffffffffffffffffffffffffffffffffff82169050919050565b6000819050919050565b620002a08162000257565b8114620002ac57600080fd5b50565b620002ba816200028b565b8114620002c657600080fd5b50565b61110480620002d96000396000f3fe6080604052600436106100dd5760003560e01c80636817c76c1161007f5780638da5cb5b116100595780638da5cb5b1461025557806395cadc4714610280578063a2e66bfc146102ab578063f2fde38b146102d4576100dd565b80636817c76c146101e8578063715018a6146102135780637de1e5361461022a576100dd565b80633290ce29116100bb5780633290ce291461016157806333f707d11461016b5780633ae1786f14610194578063668ababb146101bd576100dd565b806309d77f0e146100e25780632b65e0401461010b5780633013ce2914610136575b600080fd5b3480156100ee57600080fd5b5061010960048036038101906101049190610c46565b6102fd565b005b34801561011757600080fd5b50610120610469565b60405161012d9190610de2565b60405180910390f35b34801561014257600080fd5b5061014b61046f565b6040516101589190610d6c565b60405180910390f35b610169610495565b005b34801561017757600080fd5b50610192600480360381019061018d9190610c46565b610533565b005b3480156101a057600080fd5b506101bb60048036038101906101b69190610c46565b61068a565b005b3480156101c957600080fd5b506101d2610770565b6040516101df9190610de2565b60405180910390f35b3480156101f457600080fd5b506101fd610776565b60405161020a9190610de2565b60405180910390f35b34801561021f57600080fd5b5061022861077c565b005b34801561023657600080fd5b5061023f610804565b60405161024c9190610d87565b60405180910390f35b34801561026157600080fd5b5061026a61082a565b6040516102779190610cf1565b60405180910390f35b34801561028c57600080fd5b50610295610853565b6040516102a29190610de2565b60405180910390f35b3480156102b757600080fd5b506102d260048036038101906102cd9190610c46565b610859565b005b3480156102e057600080fd5b506102fb60048036038101906102f69190610bf4565b6109f1565b005b600660009054906101000a900473ffffffffffffffffffffffffffffffffffffffff1673ffffffffffffffffffffffffffffffffffffffff166342966c68826040518263ffffffff1660e01b81526004016103589190610de2565b600060405180830381600087803b15801561037257600080fd5b505af1158015610386573d6000803e3d6000fd5b5050505060006002805461039a9190610e64565b9050600560009054906101000a900473ffffffffffffffffffffffffffffffffffffffff1673ffffffffffffffffffffffffffffffffffffffff1663a9059cbb33836040518363ffffffff1660e01b81526004016103f9929190610d43565b602060405180830381600087803b15801561041357600080fd5b505af1158015610427573d6000803e3d6000fd5b505050506040513d601f19601f8201168201806040525081019061044b9190610c1d565b50806004600082825461045e9190610eef565b925050819055505050565b60035481565b600560009054906101000a900473ffffffffffffffffffffffffffffffffffffffff1681565b600560009054906101000a900473ffffffffffffffffffffffffffffffffffffffff1673ffffffffffffffffffffffffffffffffffffffff166340c10f1933600154346104e29190610e64565b6040518363ffffffff1660e01b81526004016104ff929190610d43565b600060405180830381600087803b15801561051957600080fd5b505af115801561052d573d6000803e3d6000fd5b50505050565b61053b610ae9565b73ffffffffffffffffffffffffffffffffffffffff1661055961082a565b73ffffffffffffffffffffffffffffffffffffffff16146105af576040517f08c379a00000000000000000000000000000000000000000000000000000000081526004016105a690610dc2565b60405180910390fd5b6003548111156105be57600080fd5b80600360008282546105d09190610eef565b92505081905550600560009054906101000a900473ffffffffffffffffffffffffffffffffffffffff1673ffffffffffffffffffffffffffffffffffffffff1663a9059cbb33836040518363ffffffff1660e01b8152600401610634929190610d43565b602060405180830381600087803b15801561064e57600080fd5b505af1158015610662573d6000803e3d6000fd5b505050506040513d601f19601f820116820180604052508101906106869190610c1d565b5050565b600560009054906101000a900473ffffffffffffffffffffffffffffffffffffffff1673ffffffffffffffffffffffffffffffffffffffff166379cc679033836040518363ffffffff1660e01b81526004016106e7929190610d43565b600060405180830381600087803b15801561070157600080fd5b505af1158015610715573d6000803e3d6000fd5b505050503373ffffffffffffffffffffffffffffffffffffffff166108fc600154836107419190610e95565b9081150290604051600060405180830381858888f1935050505015801561076c573d6000803e3d6000fd5b5050565b60045481565b60025481565b610784610ae9565b73ffffffffffffffffffffffffffffffffffffffff166107a261082a565b73ffffffffffffffffffffffffffffffffffffffff16146107f8576040517f08c379a00000000000000000000000000000000000000000000000000000000081526004016107ef90610dc2565b60405180910390fd5b6108026000610af1565b565b600660009054906101000a900473ffffffffffffffffffffffffffffffffffffffff1681565b60008060009054906101000a900473ffffffffffffffffffffffffffffffffffffffff16905090565b60015481565b600560009054906101000a900473ffffffffffffffffffffffffffffffffffffffff1673ffffffffffffffffffffffffffffffffffffffff166323b872dd33306002546040518463ffffffff1660e01b81526004016108ba93929190610d0c565b602060405180830381600087803b1580156108d457600080fd5b505af11580156108e8573d6000803e3d6000fd5b505050506040513d601f19601f8201168201806040525081019061090c9190610c1d565b5060006002805461091d9190610e64565b905080600360008282546109319190610e0e565b92505081905550806002546109469190610eef565b600460008282546109579190610e0e565b92505081905550600660009054906101000a900473ffffffffffffffffffffffffffffffffffffffff1673ffffffffffffffffffffffffffffffffffffffff1663a144819433846040518363ffffffff1660e01b81526004016109bb929190610d43565b600060405180830381600087803b1580156109d557600080fd5b505af11580156109e9573d6000803e3d6000fd5b505050505050565b6109f9610ae9565b73ffffffffffffffffffffffffffffffffffffffff16610a1761082a565b73ffffffffffffffffffffffffffffffffffffffff1614610a6d576040517f08c379a0000000000000000000000000000000000000000000000000000000008152600401610a6490610dc2565b60405180910390fd5b600073ffffffffffffffffffffffffffffffffffffffff168173ffffffffffffffffffffffffffffffffffffffff161415610add576040517f08c379a0000000000000000000000000000000000000000000000000000000008152600401610ad490610da2565b60405180910390fd5b610ae681610af1565b50565b600033905090565b60008060009054906101000a900473ffffffffffffffffffffffffffffffffffffffff169050816000806101000a81548173ffffffffffffffffffffffffffffffffffffffff021916908373ffffffffffffffffffffffffffffffffffffffff1602179055508173ffffffffffffffffffffffffffffffffffffffff168173ffffffffffffffffffffffffffffffffffffffff167f8be0079c531659141344cd1fd0a4f28419497f9722a3daafe3b4186f6b6457e060405160405180910390a35050565b600081359050610bc481611089565b92915050565b600081519050610bd9816110a0565b92915050565b600081359050610bee816110b7565b92915050565b600060208284031215610c0657600080fd5b6000610c1484828501610bb5565b91505092915050565b600060208284031215610c2f57600080fd5b6000610c3d84828501610bca565b91505092915050565b600060208284031215610c5857600080fd5b6000610c6684828501610bdf565b91505092915050565b610c7881610f23565b82525050565b610c8781610f6b565b82525050565b610c9681610f8f565b82525050565b6000610ca9602683610dfd565b9150610cb482611011565b604082019050919050565b6000610ccc602083610dfd565b9150610cd782611060565b602082019050919050565b610ceb81610f61565b82525050565b6000602082019050610d066000830184610c6f565b92915050565b6000606082019050610d216000830186610c6f565b610d2e6020830185610c6f565b610d3b6040830184610ce2565b949350505050565b6000604082019050610d586000830185610c6f565b610d656020830184610ce2565b9392505050565b6000602082019050610d816000830184610c7e565b92915050565b6000602082019050610d9c6000830184610c8d565b92915050565b60006020820190508181036000830152610dbb81610c9c565b9050919050565b60006020820190508181036000830152610ddb81610cbf565b9050919050565b6000602082019050610df76000830184610ce2565b92915050565b600082825260208201905092915050565b6000610e1982610f61565b9150610e2483610f61565b9250827fffffffffffffffffffffffffffffffffffffffffffffffffffffffffffffffff03821115610e5957610e58610fb3565b5b828201905092915050565b6000610e6f82610f61565b9150610e7a83610f61565b925082610e8a57610e89610fe2565b5b828204905092915050565b6000610ea082610f61565b9150610eab83610f61565b9250817fffffffffffffffffffffffffffffffffffffffffffffffffffffffffffffffff0483118215151615610ee457610ee3610fb3565b5b828202905092915050565b6000610efa82610f61565b9150610f0583610f61565b925082821015610f1857610f17610fb3565b5b828203905092915050565b6000610f2e82610f41565b9050919050565b60008115159050919050565b600073ffffffffffffffffffffffffffffffffffffffff82169050919050565b6000819050919050565b6000610f7682610f7d565b9050919050565b6000610f8882610f41565b9050919050565b6000610f9a82610fa1565b9050919050565b6000610fac82610f41565b9050919050565b7f4e487b7100000000000000000000000000000000000000000000000000000000600052601160045260246000fd5b7f4e487b7100000000000000000000000000000000000000000000000000000000600052601260045260246000fd5b7f4f776e61626c653a206e6577206f776e657220697320746865207a65726f206160008201527f6464726573730000000000000000000000000000000000000000000000000000602082015250565b7f4f776e61626c653a2063616c6c6572206973206e6f7420746865206f776e6572600082015250565b61109281610f23565b811461109d57600080fd5b50565b6110a981610f35565b81146110b457600080fd5b50565b6110c081610f61565b81146110cb57600080fd5b5056fea264697066735822122026fc04922809efeb793929a54fd46a1068c23363caf0bb45b3e7f1583f52d4c764736f6c63430008040033",
  "linkReferences": {},
  "deployedLinkReferences": {}
}